:100000000C942A000C943F000C943F000C943F0089
:100010000C943F000C943F000C943F000C943F0064
:100020000C943F000C943F000C943F000C945A0039
:100030000C943F000C944F000C943F000C943F0034
:100040000C943F000C943F000C943F000C943F0034
:100050000C943F0011241FBECFE5D4E0DEBFCDBF1E
:1000600010E0A0E6B0E0EAEEF5E002C005900D92E7
:10007000A23AB107D9F70E94A1000C94F3020C94A4
:10008000000020E030E04AEF50E005C0FA0131976F
:10009000F1F72F5F3F4F28173907C0F308951F92DC
:1000A0000F920FB60F921124F8940F900FBE0F907D
:1000B0001F9018951F920F920FB60F9211242F9335
:1000C0003F934F935F936F937F938F939F93AF93E0
:1000D000BF93EF93FF930E942C02883579F481E05F
:1000E00090E060E070E00E945D0181E088BB80E00C
:1000F00061E00E941C0280E690E010C0893581F426
:1001000081E090E060E070E00E945D0182E088BBE9
:1001100080E061E00E941C0288E690E00E94B0014D
:10012000FF91EF91BF91AF919F918F917F916F91CF
:100130005F914F913F912F910F900FBE0F901F90A5
:100140001895CF92DF92EF92FF921F93DF93CF9398
:10015000CDB7DEB72A970FB6F894DEBF0FBECDBF7E
:100160008FEF87BB80E00E94850183E390E00E94CF
:1001700025020E941F0181E090E060E070E00E9493
:100180005D0180E790E00E94B00180E061E00E94A4
:100190001C028CE790E00E94B00180E090E02AEF22
:1001A00030E0F9013197F1F7019684319105C9F7F3
:1001B00081E090E060E070E00E945D018CE890E0FA
:1001C0000E94B00178948AEFC82ED12C7E01089449
:1001D000E11CF11C80E090E00E942401182F80E0D7
:1001E00090E0F6013197F1F7019684369105C9F751
:1001F0008BE990E00E9491021695812F90E0B70163
:100200004AE050E00E94C202C7010E9491028AE0C7
:1002100090E00E94300280E061E00E941C02812F89
:1002200090E063E070E00E94BE0180E090E0F601A3
:100230003197F1F7019684369105C9F7CBCF80E469
:1002400087B987E886B9089597B1987F97B997B12C
:100250008770892B87B9369A349BFECF349A24B1A4
:1002600035B1C901089584B3807F84BB959A96986F
:1002700081E08A95F1F721E0979A822F8A95F1F72C
:1002800083B38295807F922F9A95F1F79798922F5A
:100290009A95F1F7979A922F9A95F1F793B3922F37
:1002A0009A95F1F79798922F9A95F1F787FDE4CFF9
:1002B000959884B38F6084BB0895382F662311F41A
:1002C000969801C0969A21E0822F8A95F1F7979A25
:1002D00085B3932F92959F70807F982B95BB822F2B
:1002E0008A95F1F79798822F8A95F1F7979A85B3B7
:1002F0003F70807F832B85BB822F8A95F1F797987B
:100300002A95F1F70E94330108951F93182F8BE36C
:100310009BE20197F1F784B38F6084BB8F9A8E9A2A
:100320008D9A85B3807F85BB97989598969881E044
:10033000982F9A95F1F7979AA99A982F9A95F1F78D
:1003400097988A95F1F70E943301812F8C6060E0C5
:100350000E945D0188E260E00E945D011F910895A6
:10036000CF93DF93EC0104C061E00E945D01219610
:1003700088818823C9F7DF91CF910895EF92FF928A
:100380000F931F93DF93CF9300D000D00F92CDB780
:10039000DEB79C018B01FE01319685E0DF011D92E5
:1003A0008A95E9F7FE0135960DC0C9016AE070E053
:1003B0000E949B028083C9016AE070E00E949B0258
:1003C0009B0131972115310581F7BFEF0F3F1B07C7
:1003D00079F420E030E0AE014F5F5F4F02C02F5F45
:1003E0003F4FFA01E20FF31F80818823C1F304C05D
:1003F00025E030E0201B310B7E010894E11CF11C4C
:10040000E20EF31E890109C0F70181917F01805D31
:1004100061E00E945D010F5F1F4F05301105A4F3DD
:100420000F900F900F900F900F90CF91DF911F9131
:100430000F91FF90EF900895883230F4611180643D
:10044000806860E00E945D01089589B990BD86E8EA
:1004500080BD88ED8AB908955F9BFECF8CB1089569
:100460005D9BFECF8CB908950F931F93DF93CF93BD
:1004700000D000D00F92CDB7DEB79C018B01FE01FA
:10048000319685E0DF011D928A95E9F7FE013596E8
:100490000DC0C9016AE070E00E949B028083C9011F
:1004A0006AE070E00E949B029B01319721153105A3
:1004B00081F7BFEF0F3F1B0771F4A0E0B0E09E0192
:1004C0002F5F3F4F01C01196F901EA0FFB1F80819A
:1004D0008823C9F304C0A5E0B0E0A01BB10BA53090
:1004E000B105ACF4AC0FBD1F11968C915D9BFECF96
:1004F000805D8CB984EC99E0FC013197F1F7FC0147
:100500003197F1F7FC013197F1F70197F1F70F906F
:100510000F900F900F900F90CF91DF911F910F913F
:100520000895FC0104C05D9BFECF31968CB980819B
:100530008823C9F7089597FB092E07260AD077FD6F
:1005400004D00CD006D000201AF4709561957F4F2E
:100550000895F6F7909581959F4F0895AA1BBB1BB0
:1005600051E107C0AA1FBB1FA617B70710F0A61BB3
:10057000B70B881F991F5A95A9F780959095BC01D4
:10058000CD010895FB019F01E8944230C4F045324B
:10059000B4F44A3029F497FB1EF4909581959F4F4F
:1005A000642F77270E94AE02805D8A330CF0895D4C
:1005B0008193CB010097A1F716F45DE2519310826D
:1005C000C9010C94E302DC01FC01672F71917723D0
:1005D000E1F7329704C07C916D9370836291AE17FE
:0A05E000BF07C8F30895F894FFCF99
:1005EA00464F5257415244005245564552534500D0
:1005FA0054656D7065726174757265004D6F6E69D0
:10060A00746F72696E67204E6F64650054656D7011
:10061A006572617475726520304300465352313AEF
:02062A000000CE
:00000001FF
